:100000000FC0000000000000000000000000000021
:1000100000000000000000000000000000000000E0
:10002000F894A89500E004BF11B5186111BD01BD99
:1000300000E405BF40E009B30170401B0FE00ABBBC
:1000400007BBF1E0E9B3E295E02304900426102C0D
:100050001294002210220BBA18BAF4CF000000004C
:100060000000000000000000000000000000000090
:100070000000000000000000000000000000000080
:100080000000000000000000000000000000000070
:100090000000000000000000000000000000000060
:1000A0000000000000000000000000000000000050
:1000B0000000000000000000000000000000000040
:1000C0000000000000000000000000000000000030
:1000D0000000000000000000000000000000000020
:1000E0000000000000000000000000000000000010
:1000F0000000000000000000000000000000000000
:100100003F065B4F666D7D077F6F777C395E797147
:00000001FF
